:020000040000FA
:100000000C945E000C9486000C9486000C94860080
:100010000C9486000C9486000C9486000C94860048
:100020000C9486000C9486000C9486000C94860038
:100030000C9486000C9486000C9486000C94860028
:100040000C9463060C9486000C94D3060C94AD06B5
:100050000C9486000C9486000C9486000C94860008
:100060000C9405070C9486000000000800020100B3
:100070000003040700000000000000000000000072
:10008000250028002B0000000000240027002A0083
:10009000040404040404040402020202020203032E
:1000A0000303030301020408102040800102040836
:1000B00010200102040810202408690D11241FBE1D
:1000C000CFEFD8E0DEBFCDBF24E0AEEDB2E001C09F
:1000D0001D92A736B207E1F712E0A0E0B1E0E4E13B
:1000E000F4E202C005900D92AE3DB107D9F710E0E1
:1000F000CDE5D0E004C02197FE010E94FC0FCC3575
:10010000D107C9F70E94AA080C94FD110C940000B5
:1001100090E0FC01EC55FF4F249180579F4FFC016C
:100120008491882399F090E0880F991FFC01EA5789
:10013000FF4FA591B491FC01E458FF4F8591949134
:100140008FB7F894EC91E22BEC938FBF08959091C8
:100150006303809162032FEF3FEF981748F4E92F74
:10016000F0E0EE5BFC4F208130E09F5F90936303F3
:10017000C901089590916303809162032FEF3FEFCF
:10018000981748F4E92FF0E0EE5BFC4F208130E057
:100190009F5F90936303C901089590E0FC01E859C3
:1001A000FF4F2491FC01EC55FF4F3491FC01E057C7
:1001B000FF4FE491EE23C9F0222339F0233001F1FF
:1001C000A8F4213019F1223029F1F0E0EE0FFF1FE1
:1001D000E458FF4FA591B4918FB7F894EC91611159
:1001E00026C030953E233C938FBF08952730A9F059
:1001F0002830C9F0243049F7809180008F7D03C0FA
:10020000809180008F7780938000DFCF84B58F77D7
:1002100084BDDBCF84B58F7DFBCF8091B0008F771D
:100220008093B000D2CF8091B0008F7DF9CF3E2B6C
:10023000DACF3FB7F89480913E0390913F03A091AD
:100240004003B091410326B5A89B05C02F3F19F08C
:100250000196A11DB11D3FBFBA2FA92F982F882746
:10026000BC01CD01620F711D811D911D42E0660F21
:10027000771F881F991F4A95D1F70895CF92DF9273
:10028000EF92FF920E9419016B017C010E941901FB
:100290006C197D098E099F09683E7340810591059F
:1002A000A8F3FF90EF90DF90CF9008952FB7F894C8
:1002B00060913A0370913B0380913C0390913D0320
:1002C0002FBF089508950895AF92BF92CF92DF9205
:1002D000EF92FF920F931F93CF93DF936C017B01FB
:1002E0008B01040F151FEB015E01AE18BF08C0178C
:1002F000D10759F06991D601ED91FC910190F081FF
:10030000E02DC6010995892B79F7C501DF91CF91C1
:100310001F910F91FF90EF90DF90CF90BF90AF9023
:100320000895FC01538D448D252F30E0842F90E0FB
:10033000821B930B541710F0CF96089501970895E0
:10034000FC01918D828D981761F0A28DAE0FBF2FA9
:10035000B11D5D968C91928D9F5F9F73928F90E0FF
:1003600008958FEF9FEF0895FC01918D828D98176E
:1003700031F0828DE80FF11D858D90E008958FEFAB
:100380009FEF0895FC01918D228D892F90E0805C74
:100390009F4F821B91098F739927089584EB93E0F7
:1003A0000E94C20121E0892B09F420E0822F0895E8
:1003B00080E090E0892B29F00E94CE0181110C94FD
:1003C00000000895FC01A48DA80FB92FB11DA35AF8
:1003D000BF4F2C91848D90E001968F739927848F65
:1003E000A689B7892C93A089B1898C918370806488
:1003F0008C93938D848D981306C00288F389E02D29
:1004000080818F7D80830895EF92FF920F931F93D9
:10041000CF93DF93EC0181E0888F9B8D8C8D9813B7
:100420001AC0E889F989808185FF15C09FB7F894C3
:10043000EE89FF896083E889F9898081837080640F
:1004400080839FBF81E090E0DF91CF911F910F915A
:10045000FF90EF900895F62E0B8D10E00F5F1F4F69
:100460000F731127E02E8C8D8E110CC00FB607FC78
:10047000FACFE889F989808185FFF5CFCE010E9406
:10048000E201F1CFEB8DEC0FFD2FF11DE35AFF4F91
:10049000F0829FB7F8940B8FEA89FB898081806294
:1004A000CFCFCF93DF93EC01888D8823B9F0AA8951
:1004B000BB89E889F9898C9185FD03C0808186FD1F
:1004C0000DC00FB607FCF7CF8C9185FFF2CF80816E
:1004D00085FFEDCFCE010E94E201E9CFDF91CF9100
:1004E00008952091FF02260F3327331F2132310553
:1004F000ECF420918A03FC0190E080E0243069F064
:1005000082E00895A091FF022191AC0141525D4F1C
:10051000A40FB52FB11D2C930196861798F38091E7
:10052000FF02680F6093FF0280E0089581E0089564
:1005300010928A0381E0809389031092640361E042
:1005400082E10E94CD0061E083E10E94CD00E9EBF1
:10055000F0E080818E7F808380818D7F808388E43E
:100560008093B80085E48093BC000895CF93DF9317
:1005700091E09093DE028823B9F0C091B800D09149
:10058000BA008091BC008A7B8093BC0060E082E16D
:100590000E94CD0060E083E10E94CD000E9498029D
:1005A000D093BA00C093B800DF91CF9108958F9295
:1005B0009F92AF92BF92CF92DF92EF92FF920F93F2
:1005C0001F93CF93DF93D091B303D13208F0D7C0FC
:1005D000182FC091B2030E9419016B017C01809118
:1005E0008A0381116BC082E080938A031093890390
:1005F0008FEF8093880310928703D0938603A2E93C
:10060000B3E0E6E6F3E080E0D81391C01092650312
:1006100080916503CC0FC82BC09365038091640360
:10062000813009F088C0109264030E9419016B01A7
:100630007C01809165038093BB0080918C03909135
:100640008D03A0918E03B0918F03892B8A2B8B2B66
:10065000A1F00E94190100918C0310918D0320914B
:100660008E0330918F036C197D098E099F0906173F
:1006700017072807390708F442C08091BC0083FDA2
:10068000D8CF85EC8093BC000E9419016B017C01DE
:1006900080918A03823009F450C0809188038F3F93
:1006A00009F46FC080918803803209F46CC0809196
:1006B0008803803309F469C084E026C080918C03EC
:1006C00090918D03A0918E03B0918F03892B8A2B7B
:1006D0008B2B09F484CF0E94190180908C03909099
:1006E0008D03A0908E03B0908F036C197D098E0945
:1006F0009F0986169706A806B90608F070CF809164
:100700008B030E94B60285E0109291031092B3030E
:1007100010929003DF91CF911F910F91FF90EF9076
:10072000DF90CF90BF90AF909F908F9008959D9154
:1007300091938F5F69CF85EEA5CF80918C039091C7
:100740008D03A0918E03B0918F03892B8A2B8B2B65
:1007500009F49ECF0E94190100918C0310918D0322
:1007600020918E0330918F036C197D098E099F09AA
:10077000061717072807390708F08ACFC0CF81E08E
:10078000C3CF80E0C1CF82E0BFCF83E0BDCF8F92E7
:100790009F92AF92BF92CF92DF92EF92FF920F9310
:1007A0001F93CF93DF93D82FC62F142F613208F0F9
:1007B0009CC00E9419016B017C0180918A03811108
:1007C0006FC081E080938A03109389039FEF909319
:1007D0008803109287039C0F909386038093650390
:1007E00080916503DD0FD82BD0936503809164035E
:1007F000813009F07CC0109264030E9419016B01E2
:100800007C01809165038093BB0080918C03909163
:100810008D03A0918E03B0918F03892B8A2B8B2B94
:10082000A1F00E94190100918C0310918D03209179
:100830008E0330918F036C197D098E099F0906176D
:1008400017072807390708F44CC08091BC0083FDC6
:10085000D8CF85EC8093BC000E9419016B017C010C
:1008600080918A03813009F444C0809187038C17FA
:1008700010F4C0918703E6E6F3E0A2E4B3E080E081
:100880008C1359C08C2FDF91CF911F910F91FF9046
:10089000EF90DF90CF90BF90AF909F908F90089592
:1008A00080918C0390918D03A0918E03B0918F0362
:1008B000892B8A2B8B2B09F480CF0E941901809001
:1008C0008C0390908D03A0908E03B0908F036C19D1
:1008D0007D098E099F0986169706A806B90608F0B5
:1008E0006CCF80918B030E94B602C0E0CBCF85EE27
:1008F000B1CF80918C0390918D03A0918E03B09124
:100900008F03892B8A2B8B2B09F4AACF0E94190104
:1009100000918C0310918D0320918E0330918F03F1
:100920006C197D098E099F090617170728073907D3
:1009300008F096CFD6CF91919D938F5FA1CF089568
:10094000E091630380916203E81730F4F0E0EE5B1E
:10095000FC4F808190E008958FEF9FEF0895809184
:10096000620390916303891B990B0895CF92DF92E4
:10097000EF92FF920F931F93CF93DF937C01CB01F4
:100980008A0120919003222389F0EB016B01C40EB0
:10099000D51ECC15DD0569F06991D701ED91FC916B
:1009A0000190F081E02DC7010995F3CF642F0E94DB
:1009B0007102C801DF91CF911F910F91FF90EF90CD
:1009C000DF90CF900895CF93DF931F92CDB7DEB71E
:1009D0006983209190032223F9F02091B303203200
:1009E00058F021E030E0FC013383228390E080E086
:1009F0000F90DF91CF91089580919103E82FF0E05F
:100A0000EE56FC4F998190838F5F80939103809382
:100A1000B30381E090E0ECCF61E0CE0101960E944B
:100A20007102F7CF682F81E594E00C94E30490E025
:100A300080E008951F93CF93DF93EC01162F81E0A0
:100A40008093900380E58093B203109291031092FB
:100A5000B3038D2F9D2F990F990B0E941205CE0184
:100A600099270E941205612F81E594E00E94E3041A
:100A700081E00E94D702DF91CF911F910C943E013B
:100A8000FC0101900020E9F73197AF01481B590B99
:100A9000BC0184EB93E00C9464018F929F92AF921F
:100AA000BF920F931F93CF93DF93CDB7DEB7A1977C
:100AB0000FB6F894DEBF0FBECDBF19A2423008F4C6
:100AC0004AE08E010F5D1F4F842E912CB12CA12C7A
:100AD000A50194010E94DA0FE62FB901CA01EA309C
:100AE000F4F4E05DD801EE938D01232B242B252B0C
:100AF00079F790E080E0109719F0CD010E94400551
:100B0000A1960FB6F894DEBF0FBECDBFDF91CF9197
:100B10001F910F91BF90AF909F908F900895E95CC7
:100B2000E1CFCF93DF930E944005EC018AE291E090
:100B30000E9440058C0F9D1FDF91CF9108950C946A
:100B40004005CF93DF93EC0180915D0490915E04AA
:100B5000009759F020915F04309160042C173D07F5
:100B600020F081E0DF91CF910895BE016F5F7F4F4C
:100B70000E942711009789F090935E0480935D0492
:100B8000D0936004C0935F042091610430916204AB
:100B9000232B39F7FC011082E4CF80E0E3CFCF9222
:100BA000DF92EF92FF92CF93DF936C01990FEE08E3
:100BB000FF08F7FE19C06DE284EB93E00E94040287
:100BC000EC0166277727CB016C197D098E099F09F7
:100BD0004AE00E944D058C0F9D1FDF91CF91FF9041
:100BE000EF90DF90CF9008954AE0C701B601DF9102
:100BF000CF91FF90EF90DF90CF900C944D05CF9365
:100C0000DF93EC0181E08093900380E58093B20351
:100C1000109291031092B3038D2F9D2F990F990B72
:100C20000E941205CE0199270E94120581E00E94C0
:100C3000D70241E061E080E50E94C70310926303A0
:100C400080936203882329F00E94BA00DF91CF913C
:100C5000089580E0FBCF85ED8093BC0080918C03EC
:100C600090918D03A0918E03B0918F030796A11DE3
:100C7000B11D23E0B695A795979587952A95D1F74D
:100C80002091BC0024FD03C010928A030895409176
:100C90008C0350918D0360918E0370918F03452BCF
:100CA000462B472B69F30097A105B10541F02AE2D5
:100CB0002A95F1F700C00197A109B109E1CF809110
:100CC0008B030C94B6021F920F920FB60F92112451
:100CD0002F933F938F939F93AF93BF9380913A034A
:100CE00090913B03A0913C03B0913D0330913903B7
:100CF00023E0230F2D3758F50196A11DB11D209338
:100D0000390380933A0390933B03A0933C03B09341
:100D10003D0380913E0390913F03A0914003B09129
:100D200041030196A11DB11D80933E0390933F03A3
:100D3000A0934003B0934103BF91AF919F918F91D6
:100D40003F912F910F900FBE0F901F90189526E89E
:100D5000230F0296A11DB11DD2CF1F920F920FB685
:100D60000F9211242F933F934F935F936F937F9331
:100D70008F939F93AF93BF93EF93FF9384EB93E095
:100D80000E94E201FF91EF91BF91AF919F918F91EE
:100D90007F916F915F914F913F912F910F900FBE77
:100DA0000F901F9018951F920F920FB60F9211245B
:100DB0002F938F939F93EF93FF93E091C403F09150
:100DC000C5038081E091CA03F091CB0382FD1BC073
:100DD00090818091CD038F5F8F732091CE03821716
:100DE00041F0E091CD03F0E0EC54FC4F958F8093FF
:100DF000CD03FF91EF919F918F912F910F900FBE97
:100E00000F901F9018958081F4CF1F920F920FB60C
:100E10000F9211242F933F934F935F936F937F9380
:100E20008F939F93AF93BF93EF93FF938091B900FC
:100E3000887F803609F44AC0F0F5883209F4A7C0EB
:100E400018F5803109F49BC0B8F4882309F4F9C07F
:100E5000883009F494C0FF91EF91BF91AF919F91B9
:100E60008F917F916F915F914F913F912F910F9053
:100E70000FBE0F901F901895883109F488C08032FA
:100E800051F78093880314C0803409F49DC040F466
:100E90008033B9F38833F9F68093880385ECB0C0CA
:100EA000803509F485C0883509F496C0883499F6F0
:100EB0000E942B06D0CF883909F48CC038F58837CA
:100EC00029F050F4883611F0803729F683E08093BA
:100ED0008A031092210357C0883809F47BC08039F7
:100EE00019F0803809F0B7CF80912103803208F0E3
:100EF00071C0E091210381E08E0F809321038091E6
:100F0000BB00F0E0EF5FFC4F80833DC0803B39F0D9
:100F1000E0F4803A09F479C0883A09F09CCF84E083
:100F200080938A03109200031092FF02E091240341
:100F3000F091250309958091FF0281110FC081E096
:100F40008093FF021092DF0209C0803C09F4A6CF13
:100F5000883C09F4A3CF883B09F07DCFE0910003E2
:100F600081E08E0F80930003F0E0E152FD4F80811D
:100F70008093BB00909100038091FF0229C0809173
:100F800065038093BB0085EC8093BC0064CF909197
:100F9000870380918603981758F5E091870381E0D5
:100FA0008E0F80938703F0E0EA59FC4F8081E9CFF0
:100FB000E091870381E08E0F809387038091BB00CF
:100FC000F0E0EA59FC4F808390918703809186037B
:100FD0009817C8F285E8D8CFE091870381E08E0F9B
:100FE000809387038091BB00F0E0EA59FC4F808337
:100FF0008091890381115CCF81E08093640384EA4E
:101000008093BC0010928A0326CF85EC8093BC00AD
:1010100010928A0380912103803230F4E091210301
:10102000F0E0EF5FFC4F10826091210370E0E091EF
:101030002203F091230381E093E0099510922103AC
:101040000ACF1092880334CF1092B7031092B603E0
:1010500088EE93E0A0E0B0E08093B8039093B903EA
:10106000A093BA03B093BB032AE031E03093B503F9
:101070002093B40325EC30E03093C1032093C003E8
:1010800024EC30E03093C3032093C20320EC30E023
:101090003093C5032093C40321EC30E03093C703A1
:1010A0002093C60322EC30E03093C9032093C80399
:1010B00026EC30E03093CB032093CA031092CD038B
:1010C0001092CE031092CF031092D00310925404CA
:1010D000109253048093550490935604A0935704A0
:1010E000B09358048CE191E09093520480935104A2
:1010F00010925E0410925D041092600410925F04DE
:10110000109262041092610490E080E00E94A105B8
:1011100020915D0430915E04811113C021153105C9
:1011200019F0C9010E949E1010925E0410925D0495
:1011300010926204109261041092600410925F0495
:10114000089510926204109261046CE271E0C9018A
:101150000C94F611CF93DF93CDB7DEB72E970FB671
:10116000F894DEBF0FBECDBF789484B5826084BD95
:1011700084B5816084BD85B5826085BD85B581609B
:1011800085BD80916E00816080936E001092810019
:1011900080918100826080938100809181008160D4
:1011A0008093810080918000816080938000809195
:1011B000B10084608093B1008091B0008160809321
:1011C000B00080917A00846080937A0080917A00E8
:1011D000826080937A0080917A00816080937A00A7
:1011E00080917A00806880937A001092C1008AE032
:1011F0000E94880083E00E94880060E083E00E94F3
:10120000CD0010926303109262030E94980282E65E
:1012100091E0909325038093240383E691E09093DB
:101220002303809322038CE08093B80081E08093B5
:10123000900388E68093B203109291031092B30357
:101240008BE690E00E94120590E080E00E9412057B
:1012500081E00E94D702E091C403F091C50382E0CF
:101260008083E091C003F091C1031082E091C2033A
:10127000F091C3038FEC80831092CC03E091C803FC
:10128000F091C90386E08083E091C603F091C70323
:10129000808180618083E091C603F091C7038081E3
:1012A00088608083E091C603F091C70380818068E5
:1012B0008083E091C603F091C70380818F7D808396
:1012C0008DE291E00E9491058FE491E00E949105EA
:1012D00083E691E00E94910587E991E00E949105E3
:1012E00022242394312C21E02093900388E68093DC
:1012F000B203109291031092B3038BE390E00E942B
:10130000120580E00E94D70241E06CE088E60E946E
:10131000C70310926303809362030E94BA00182FE0
:101320000E94BA001C831B82CB80DC80C82AD92A89
:10133000D0923803C09237030E94BA00182F0E943F
:10134000BA001E831D82ED80FE80E82AF92AF09201
:101350003603E09235030E94BA00182F0E94BA00AB
:1013600018871F820F811885082B192B10933403BF
:1013700000933303B601DD0C880B990B0E94820D9C
:101380004B015C01B701FF0C880B990B0E94820D89
:101390006B017C01B801110F880B990B0E94820D23
:1013A0002B013C01A7019601C701B6010E94E10D86
:1013B0006B017C01A5019401C501B4010E94E10DFE
:1013C0009B01AC01C701B6010E94DA0E6B017C01E2
:1013D000A3019201C301B2010E94E10D9B01AC0186
:1013E000C701B6010E94DA0E0E94800F2B013C015A
:1013F00020E030E44CE955E40E947B0D18160CF413
:1014000064C18091310390913203892B09F05DC151
:101410008091300381110DC00E94560160932C030E
:1014200070932D0380932E0390932F0391E090935C
:1014300030030E94560100912C0310912D0320913E
:101440002E0330912F03601B710B820B930B663EB2
:1014500071058105910508F4C4C0309232032092D1
:10146000310330922B0320922A0387EC91E00E94F3
:101470009105609131038AE00E94CD00809129039B
:101480008111AFC085ED91E00E9491050E94560147
:101490006B017C016F2D77278827992790E080E0EA
:1014A0000E941A05B7018827992781E090E00E94E1
:1014B0001A0599278F2D7E2D6D2D82E090E00E94D8
:1014C0001A056C2D83E090E00E941A0561EF84E01C
:1014D00090E00E941A05E5E0F0E0F0932703E09326
:1014E000260361EF862E64E0962EF1E0F0939003E0
:1014F00028E62093B203109291031092B3038BE37A
:1015000090E00E94120580E00E94D70241E06CE06A
:1015100088E60E94C70310926303809362030E94CF
:10152000BA00182F0E94BA001A871986A984BA84B3
:10153000A82AB92AB0923803A09237030E94BA00B1
:10154000182F0E94BA001C871B86CB84DC84C82A13
:10155000D92AD0923603C09235030E94BA00182FC0
:101560000E94BA001E871D86ED84FE84E82AF92AAF
:10157000F0923403E0923303009126031091270385
:101580006B2DC8010E941A056A2DC80101960E94A0
:101590001A056D2DC80102960E941A056C2DC8010E
:1015A00003960E941A056F2DC80104960E941A0521
:1015B0006E2DC80105960E941A050A5F1F4F1093F1
:1015C0002703009326030E943E0181E0881A9108B8
:1015D00009F08BCF84EF91E00E94910591E0909308
:1015E000290300912A0310912B03602F83E00E94AE
:1015F000CD0001301105B9F40E94560100912C0371
:1016000010912D0320912E0330912F03601B710B3D
:10161000820B930B663B78408105910520F0109278
:101620002B0310922A038091310390913203892B6E
:10163000B9F50E9456014AE00E944D058EE092E005
:101640000E949F0580913703909138030E94CF0537
:1016500081E192E00E949F058091350390913603CD
:101660000E94CF0581E192E00E949F0580913303A3
:10167000909134030E94CF0585E192E00E949F057E
:10168000A3019201C301B2010E94C00F882359F146
:101690008CE192E00E9440058BE291E00E949F0560
:1016A00084EB93E00E94C201181619060CF0CFC01B
:1016B00084EB93E00E94A0018A3019F08D3009F08C
:1016C000A4C0F1E0F0932803EBCF20E030E44CE934
:1016D00055E4C301B2010E94750F18160CF081CFBA
:1016E000109230037ECF73016201E894F7F82FEF78
:1016F0003FEF4FE75FE7C701B6010E94C00F8111BE
:101700000DC02FEF3FEF4FE75FE7C701B6010E9423
:101710007B0D18161CF480E292E0BCCF2FEF3FEF58
:101720004FE75FE4C301B2010E94750F18161CF465
:1017300084E292E0AFCF2FEF3FEF4FE75FECC301C2
:10174000B2010E947B0D87FDF3CF20E030E0A901BC
:10175000C301B2010E947B0D87FF09C06DE284EBDB
:1017600093E00E94040277FA709477F870942AE06C
:1017700037ED43EA5BE3C301B2010E94DA0E4B018D
:101780005C010E94460F6B017C010E94800D9B0151
:10179000AC01C501B4010E94D90E4B015C014AE0C5
:1017A000C701B6010E944D056EE284EB93E00E94F2
:1017B000040220E030E040E251E4C501B4010E949F
:1017C000E10D4B015C010E94460F6B01F12CE12CF5
:1017D0004AE0C701B6010E944D05C701B6010E944B
:1017E000800D9B01AC01C501B4010E94D90E20E01F
:1017F00030E040E251E40E94E10D0E94460F90E08B
:1018000080E04AE00E944D0547CF89831A8200910B
:101810006104109162040F5F1F4FC8010E94A1056F
:10182000882309F43DCF20915D0430915E048091BE
:10183000610490916204BE016F5F7F4F820F931F1E
:101840000E94F611109362040093610429CF8091E5
:101850002803882309F40CC1C0905D04D0905E0475
:10186000C114D10449F00091610410916204760121
:101870000115110509F09EC08091610490916204E8
:10188000892B09F4D7C000915D0410915E0468E2D1
:1018900072E0C8010E94ED117C01892B09F0F5C0AE
:1018A00082E392E00E94910590E080E00E94FF05B3
:1018B000182F81E090E00E94FF0590E0B0E0A0E0EA
:1018C0005C0199248824B12A82E090E00E94FF05FF
:1018D000182F83E090E00E94FF05882A912A84E077
:1018E00090E00E94FF05682E712C81E592E00E9435
:1018F0009F054AE0C501B4010E944D0584E692E0CF
:101900000E94910588E692E00E949F05C3010E9413
:10191000CF058AE291E00E9440058CE792E00E94A8
:10192000910505E010E0E614F7040CF07FC0C80153
:101930000E94FF05882EC80101960E94FF05982C81
:10194000882EC80102960E94FF05A82EC8010396A2
:101950000E94FF05BA2CA82EC80104960E94FF051C
:10196000C82EC80105960E94FF05DC2CC82E0A5F10
:101970001F4FC7010E94CF0581E992E00E949F0599
:10198000C4010E94CF0581E992E00E949F05C50134
:101990000E94CF0581E992E00E949F05C6010E9446
:1019A000CF058AE291E00E944005FFEFEF1AFF0A9F
:1019B000BACF750157012FEFA21AB20AF701808141
:1019C000082E000C990B0E94720D892B91F7015083
:1019D00011090C0D1D1DF8018081082E000C990BBA
:1019E0000E94720D892B31F00E151F0518F0015061
:1019F0001109F1CF0F5F1F4FA8014E195F095093D6
:101A0000620440936104CE14DF0420F4B701C601E0
:101A10000E94E411E0915D04F0915E048091610404
:101A200090916204E80FF91F108226CF83E992E0BB
:101A30000E94910590E080E00E94A10520915D0444
:101A400030915E0481113BC02115310519F0C901A7
:101A50000E949E1010925E0410925D041092620427
:101A6000109261041092600410925F041092280397
:101A700080E090E0892B09F436CC0E94CE018823C7
:101A800009F431CC0E9400002ECC6FE972E0C8014D
:101A90000E94ED118C01892B69F68AEA92E00E947E
:101AA000910560E0C8010E941A050F5F1F4F0530C5
:101AB0001105B9F71092290382EC92E0B9CF109288
:101AC0006204109261046CE271E0C9010E94F61197
:101AD000CDCF80915D0490915E04009711F00C943D
:101AE0009E10089591110C944E0E803219F0895079
:101AF0008550C8F708950E94BD0D08F481E008954F
:101B0000E89409C097FB3EF4909580957095619597
:101B10007F4F8F4F9F4F9923A9F0F92F96E9BB274D
:101B20009395F695879577956795B795F111F8CFC9
:101B3000FAF4BB0F11F460FF1BC06F5F7F4F8F4F34
:101B40009F4F16C0882311F096E911C0772321F02A
:101B50009EE8872F762F05C0662371F096E8862FC2
:101B600070E060E02AF09A95660F771F881FDAF719
:101B7000880F9695879597F90895990F0008550F46
:101B8000AA0BE0E8FEEF16161706E807F907C0F003
:101B900012161306E407F50798F0621B730B840B0B
:101BA000950B39F40A2661F0232B242B252B21F4E5
:101BB00008950A2609F4A140A6958FEF811D811D85
:101BC00008950E94F40D0C94680E0E945A0E38F08D
:101BD0000E94610E20F0952311F00C94510E0C948C
:101BE000570E11240C949C0E0E94790E70F3959F51
:101BF000C1F3950F50E0551F629FF001729FBB2704
:101C0000F00DB11D639FAA27F00DB11DAA1F649F9F
:101C10006627B00DA11D661F829F2227B00DA11D52
:101C2000621F739FB00DA11D621F839FA00D611DD8
:101C3000221F749F3327A00D611D231F849F600DF9
:101C4000211D822F762F6A2F11249F5750409AF022
:101C5000F1F088234AF0EE0FFF1FBB1F661F771FAE
:101C6000881F91505040A9F79E3F510580F00C9479
:101C7000510E0C949C0E5F3FE4F3983ED4F386958E
:101C800077956795B795F795E7959F5FC1F7FE2B19
:101C9000880F911D9695879597F90895992788271C
:101CA000089597F99F6780E870E060E008959FEFDE
:101CB00080EC089500240A941616170618060906E3
:101CC000089500240A9412161306140605060895B2
:101CD000092E0394000C11F4882352F0BB0F40F43A
:101CE000BF2B11F460FF04C06F5F7F4F8F4F9F4F7A
:101CF000089557FD9058440F551F59F05F3F71F0FC
:101D00004795880F97FB991F61F09F3F79F0879562
:101D10000895121613061406551FF2CF4695F1DFEB
:101D200008C0161617061806991FF1CF869571057B
:101D3000610508940895E894BB2766277727CB01AF
:101D400097F908952F923F924F925F926F927F92F0
:101D50008F929F92AF92BF92CF92DF92EF92FF92BB
:101D60000F931F93CF93DF93CDB7DEB7CA1BDB0B67
:101D70000FB6F894DEBF0FBECDBF09942A8839880C
:101D800048885F846E847D848C849B84AA84B98413
:101D9000C884DF80EE80FD800C811B81AA81B9811F
:101DA000CE0FD11D0FB6F894DEBF0FBECDBFED0133
:101DB00008955058BB27AA270E94F10E0C94680E74
:101DC0000E945A0E38F00E94610E20F039F49F3FB5
:101DD00019F426F40C94570E0EF4E095E7FB0C94DE
:101DE000510EE92F0E94790E58F3BA176207730754
:101DF0008407950720F079F4A6F50C949B0E0EF459
:101E0000E0950B2EBA2FA02D0B01B90190010C010A
:101E1000CA01A0011124FF27591B99F0593F50F422
:101E2000503E68F11A16F040A22F232F342F44277A
:101E3000585FF3CF469537952795A795F040539572
:101E4000C9F77EF41F16BA0B620B730B840BBAF042
:101E50009150A1F0FF0FBB1F661F771F881FC2F7AD
:101E60000EC0BA0F621F731F841F48F487957795C1
:101E70006795B795F7959E3F08F0B0CF9395880F7B
:101E800008F09927EE0F9795879508950E94810E87
:101E900088F09F5798F0B92F9927B751B0F0E1F02B
:101EA000660F771F881F991F1AF0BA95C9F714C0DB
:101EB000B13091F00E949B0EB1E008950C949B0EFE
:101EC000672F782F8827B85F39F0B93FCCF3869514
:101ED00077956795B395D9F73EF490958095709571
:101EE00061957F4F8F4F9F4F08950E94BD0D08F45D
:101EF0008FEF089519F416F40C94570E0C94C50F37
:101F00000E94810EB8F39923C9F3B6F39F57550B7E
:101F100087FF0E94D30F0024A0E640EA900180587A
:101F20005695979528F4805C660F771F881F20F0E0
:101F300026173707480730F4621B730B840B2029E0
:101F400031294A2BA69517940794202531254A2735
:101F500058F7660F771F881F20F0261737074807A6
:101F600030F4620B730B840B200D311D411DA095C5
:101F700081F7B901842F9158880F96958795089518
:101F80000E94BD0D880B990B08959F3F31F0915031
:101F900020F4879577956795B795880F911D96954D
:101FA000879597F9089591505040660F771F881FC5
:101FB000D2F70895A1E21A2EAA1BBB1BFD010DC08A
:101FC000AA1FBB1FEE1FFF1FA217B307E407F507E9
:101FD00020F0A21BB30BE40BF50B661F771F881FC5
:101FE000991F1A9469F760957095809590959B015B
:101FF000AC01BD01CF010895EE0FFF1F0590F491D4
:10200000E02D09940F931F93CF93DF9382309105B6
:1020100010F482E090E0E0916504F091660430E015
:1020200020E0B0E0A0E0309799F42115310509F4E3
:102030004AC0281B390B24303105D8F58A819B8191
:102040006115710589F1FB0193838283FE0111C043
:10205000408151810281138148175907E0F04817E8
:10206000590799F4109761F012960C9312971396F2
:102070001C933296CF01DF91CF911F910F9108955C
:102080000093650410936604F4CF2115310551F0D7
:102090004217530738F0A901DB019A01BD01DF01A6
:1020A000F801C1CFEF01F9CF9093660480936504E6
:1020B000CDCFFE01E20FF31F81939193225031099E
:1020C00039832883D7CF2091630430916404232B74
:1020D00041F4209102013091030130936404209374
:1020E000630420910001309101012115310541F473
:1020F0002DB73EB74091040150910501241B350BCB
:10210000E0916304F0916404E217F307A0F42E1B3E
:102110003F0B2817390778F0AC014E5F5F4F24174B
:10212000350748F04E0F5F1F5093640440936304DB
:10213000819391939FCFF0E0E0E09CCFCF93DF932A
:102140000097E9F0FC01329713821282A091650496
:10215000B0916604ED0130E020E01097A1F42081F9
:102160003181820F931F20916304309164042817FA
:10217000390709F061C0F0936404E0936304DF91D0
:10218000CF910895EA01CE17DF07E8F54A815B8118
:102190009E0141155105B1F7E901FB83EA8349919D
:1021A0005991C40FD51FEC17FD0761F4808191810F
:1021B0000296840F951FE901998388838281938118
:1021C0009B838A83F0E0E0E012968D919C911397B7
:1021D0000097B9F52D913C911197CD010296820F90
:1021E000931F20916304309164042817390739F64E
:1021F000309751F51092660410926504B093640410
:10220000A0936304BCCFD383C28340815181840FE8
:10221000951FC817D90761F44E5F5F4F8881998178
:10222000480F591F518340838A819B819383828306
:102230002115310509F0B0CFF0936604E0936504F1
:102240009ECFFD01DC01C0CF13821282D7CFB0E058
:10225000A0E0EDE2F1E10C94A40E8C01009751F4A2
:10226000CB010E9402108C01C801CDB7DEB7E0E1BE
:102270000C94C00EFC01E60FF71F9C01225031099F
:10228000E217F30708F49DC0D901CD91DC911197B5
:10229000C617D70798F0C530D10530F3CE010497A3
:1022A0008617970708F3C61BD70B2297C193D193C4
:1022B0006D937C93CF010E949E10D6CF5B01AC1A28
:1022C000BD0A4C018C0E9D1EA0916504B091660460
:1022D000512C412CF12CE12C109731F580916304A5
:1022E000909164048815990509F05CC0461657065C
:1022F00008F058C08091000190910101009741F4CD
:102300008DB79EB74091040150910501841B950B38
:10231000E817F90708F055C0F0936404E0936304EC
:10232000F90171836083A0CF8D919C9111971296D2
:102330006C90129713967C901397A815B90559F5D0
:102340006C0142E0C40ED11CCA14DB0420F1AC01C4
:102350004A195B09DA011296159780F0628273823E
:1023600051834083D9016D937C93E114F10471F0A2
:10237000D7011396FC93EE93129776CF22968C0F8B
:102380009D1FF90191838083F301EFCFF0936604E1
:10239000E093650469CF4816590608F42C017D01C5
:1023A000D3019ACFCB010E9402107C01009749F023
:1023B000AE01B8010E94E411C8010E949E1087017D
:1023C00053CF10E000E050CFFB01DC0102C00190D0
:1023D0000D9241505040D8F70895FB01DC018D91DA
:1023E000019080190110D9F3990B0895FB01DC01CC
:1023F00001900D920020E1F7089510E0CDE5D0E0C6
:1024000004C0FE010E94FC0F2196CE35D107C9F70A
:10241000F894FFCF00006704800000000000040271
:10242000640191015102C201A001B4010000000049
:10243000E304B60417059F04AF04A700A0040D0A27
:102440000046616C6C20646574656374696F6E200E
:1024500073797374656D20696E697469616C697AEA
:10246000656400417661696C61626C6520636F6DC3
:102470006D616E64733A002D20524541445F4441C2
:1024800054413A2052656164207468652073746F0A
:102490007265642066616C6C20616363656C657253
:1024A0006174696F6E2064617461002D20434C4536
:1024B00041525F444154413A20436C65617220614E
:1024C0006C6C2073746F7265642064617461206643
:1024D000726F6D20454550524F4D0046414C4C2087
:1024E00044455445435445440053746F72696E67C4
:1024F0002066616C6C206461746120746F204545B6
:1025000050524F4D2E2E2E00446174612073746F13
:10251000726564207375636365737366756C6C793B
:102520002100206D73207C2000202020202020000E
:102530006E616E00696E66006F76660052454144BA
:102540005F444154410052656164696E6720666171
:102550006C6C20646174612066726F6D204545501B
:10256000524F4D3A0046616C6C206465746563742B
:1025700065642061743A2000206D73004E756D62B1
:102580006572206F66207265636F7264733A200013
:10259000496E6465782C416363582C416363592C00
:1025A0004163635A002C00456E64206F66206461AD
:1025B000746100434C4541525F4441544100436CB7
:1025C000656172696E672073746F726564206461FF
:1025D00074612E2E2E004461746120636C656172FB
:1025E0006564207375636365737366756C6C7921BC
:0225F0000000E9
:107800000C94343C0C94513C0C94513C0C94513CE1
:107810000C94513C0C94513C0C94513C0C94513CB4
:107820000C94513C0C94513C0C94513C0C94513CA4
:107830000C94513C0C94513C0C94513C0C94513C94
:107840000C94513C0C94513C0C94513C0C94513C84
:107850000C94513C0C94513C0C94513C0C94513C74
:107860000C94513C0C94513C11241FBECFEFD8E036
:10787000DEBFCDBF11E0A0E0B1E0ECE9FFE702C060
:1078800005900D92A230B107D9F712E0A2E0B1E065
:1078900001C01D92AD30B107E1F70E942D3D0C945F
:1078A000CC3F0C94003C982F959595959595959582
:1078B000905D8F708A307CF0282F295A8091C0000B
:1078C00085FFFCCF9093C6008091C00085FFFCCF60
:1078D0002093C6000895282F205DF0CF982F809127
:1078E000C00085FFFCCF9093C6000895EF92FF92F1
:1078F0000F931F93EE24FF2487018091C00087FD22
:1079000017C00894E11CF11C011D111D81E4E8164B
:1079100082E4F8068FE0080780E0180770F3E09132
:107920000401F091050109958091C00087FFE9CF1E
:107930008091C6001F910F91FF90EF9008950E94D3
:10794000763C982F8091C00085FFFCCF9093C600B5
:1079500091362CF490330CF09053892F089597555D
:10796000892F08951F930E949F3C182F0E949F3CCF
:107970001295107F810F1F9108951F93182F882350
:1079800021F00E94763C1150E1F71F9108951F935A
:10799000182F0E94763C803249F0809103018F5F5E
:1079A000809303018530C1F01F9108958091C0003C
:1079B00085FFFCCF84E18093C6008091C00085FFE5
:1079C000FCCF1093C6008091C00085FFFCCF80E102
:1079D0008093C6001F910895E0910401F091050184
:1079E00009951F9108950E94763C803241F0809164
:1079F00003018F5F80930301853081F008958091AA
:107A0000C00085FFFCCF84E18093C6008091C00058
:107A100085FFFCCF80E18093C6000895E0910401CA
:107A2000F09105010995089540E951E08823A1F0FE
:107A30002D9A28EE33E0FA013197F1F721503040CA
:107A4000D1F72D9828EE33E0FA013197F1F7215064
:107A50003040D1F7815061F708953F924F925F9285
:107A60006F927F928F929F92AF92BF92CF92DF924E
:107A7000EF92FF920F931F93CF93DF93000080E16B
:107A80008093C4001092C50088E18093C10086E015
:107A90008093C2005098589A259A81E00E94143D24
:107AA00024E1F22E9EE1E92E85E9D82E0FE0C02ECA
:107AB00010E1B12EAA24A394B1E49B2EA6E58A2E50
:107AC000F2E57F2EE0E26E2E79E4572E63E5462E36
:107AD00050E5352E0E94763C8033B1F18133B9F107
:107AE000803409F46FC0813409F476C0823409F41B
:107AF00085C0853409F488C0803531F1823521F1A3
:107B0000813511F1853509F485C0863509F48DC0BC
:107B1000843609F496C0843709F403C1853709F423
:107B200072C1863709F466C0809103018F5F80932C
:107B30000301853079F6E0910401F0910501099582
:107B40000E94763C803351F60E94F33CC3CF0E94E2
:107B5000763C803249F78091C00085FFFCCFF092DF
:107B6000C6008091C00085FFFCCF9092C600809136
:107B7000C00085FFFCCF8092C6008091C00085FFC9
:107B8000FCCF7092C6008091C00085FFFCCF609250
:107B9000C6008091C00085FFFCCF5092C600809146
:107BA000C00085FFFCCF4092C6008091C00085FFD9
:107BB000FCCF3092C6008091C00085FFFCCFB09210
:107BC000C60088CF0E94763C863808F4BDCF0E945C
:107BD000763C0E94F33C7ECF0E94763C803809F4CC
:107BE0009CC0813809F40BC1823809F43CC1883942
:107BF00009F48FC080E00E94C73C6CCF84E10E94F2
:107C0000BD3C0E94F33C66CF85E00E94BD3C0E94D3
:107C1000F33C60CF0E94763C809306010E94763C44
:107C2000809307010E94F33C55CF0E94763C80333D
:107C300009F41DC183E00E94BD3C80E00E94C73C66
:107C400049CF0E94763C809309020E94763C809343
:107C5000080280910C028E7F80930C020E94763C79
:107C6000853409F415C18091080290910902892B8D
:107C700089F000E010E00E94763CF801E85FFE4FDA
:107C800080830F5F1F4F80910802909109020817AF
:107C9000190788F30E94763C803209F045CF809125
:107CA0000C0280FF01C16091060170910701660F0F
:107CB000771F7093070160930601A0910802B091AD
:107CC00009021097C9F0E8E0F1E09B01AD014E0F09
:107CD0005F1FF999FECF32BD21BD819180BDFA9A17
:107CE000F99A2F5F3F4FE417F50799F76A0F7B1F4B
:107CF00070930701609306018091C00085FFFCCF5F
:107D0000F092C6008091C00085FFFCCFB092C60003
:107D1000E1CE83E00E94C73CDDCE82E00E94C73CFA
:107D2000D9CE0E94763C809309020E94763C8093D3
:107D300008028091060190910701880F991F909386
:107D40000701809306010E94763C853409F4A6C0A1
:107D500080910C028E7F80930C020E94763C8032D0
:107D600009F0B8CE8091C00085FFFCCFF092C6002C
:107D7000609108027091090261157105B9F140E046
:107D800050E080910C02A82FA170B82FB27011C0E2
:107D9000BB2309F45CC0E0910601F0910701319624
:107DA000F0930701E09306014F5F5F4F46175707B7
:107DB000E8F4AA2369F3F999FECF209106013091E6
:107DC000070132BD21BDF89A90B58091C00085FFB2
:107DD000FCCF9093C6002F5F3F4F30930701209355
:107DE00006014F5F5F4F4617570718F38091C00099
:107DF00085FDE5CE8091C00085FFF8CFE0CE81E023
:107E00000E94C73C67CE0E94763C803209F08CCE3F
:107E10008091C00085FFFCCFF092C6008091C00029
:107E200085FFFCCFE092C6008091C00085FFFCCFAB
:107E3000D092C6008091C00085FFFCCFC092C600E2
:107E40008091C00085FFFCCFB092C60043CEE09188
:107E50000601F091070194918091C00085FFFCCF4D
:107E60009093C6009CCF80E10E94C73C33CE0E9415
:107E7000763C0E94763C182F0E94763C112309F430
:107E800083C0113009F484C08FE00E94C73C22CE29
:107E900080910C02816080930C02E5CE80910C02EF
:107EA000816080930C0259CF809107018823880F4D
:107EB000880B8A2180930B02809106019091070123
:107EC000880F991F90930701809306018091080203
:107ED00080FF09C080910802909109020196909359
:107EE000090280930802F894F999FECF1127E091D6
:107EF0000601F0910701C8E0D1E08091080290915D
:107F00000902103091F40091570001700130D9F34B
:107F100003E000935700E89500915700017001308D
:107F2000D9F301E100935700E89509901990009169
:107F3000570001700130D9F301E000935700E89534
:107F40001395103498F011270091570001700130FB
:107F5000D9F305E000935700E895009157000170B0
:107F60000130D9F301E100935700E895329602976A
:107F700009F0C7CF103011F00296E5CF112480919F
:107F8000C00085FFB9CEBCCE8EE10E94C73CA2CD19
:0E7F900085E90E94C73C9ECDF894FFCF80008B
:00000001FF
