:020000040000FA
:100000000C945D000C9485000C9485000C94850084
:100010000C9485000C9485000C9485000C9485004C
:100020000C9485000C9485000C9485000C9485003C
:100030000C9485000C9485000C9485000C9485002C
:100040000C94F0040C9485000C9460050C943A0513
:100050000C9485000C9485000C9485000C9485000C
:100060000C9492050C948500000000080002010029
:100070000003040700000000000000000000000072
:10008000250028002B0000000000240027002A0083
:10009000040404040404040402020202020203032E
:1000A0000303030301020408102040800102040836
:1000B0001020010204081020B10611241FBECFEF4A
:1000C000D8E0DEBFCDBF11E0A0E0B1E0E2E8F9E1A9
:1000D00002C005900D92A035B107D9F722E0A0E546
:1000E000B1E001C01D92AB3CB207E1F710E0CDE5F5
:1000F000D0E004C02197FE010E94B90CCC35D10795
:10010000C9F70E94EA060C94BF0C0C94000090E022
:10011000FC01EC55FF4F249180579F4FFC018491C7
:10012000882399F090E0880F991FFC01EA57FF4F50
:10013000A591B491FC01E458FF4F859194918FB73C
:10014000F894EC91E22BEC938FBF089590E0FC01C2
:10015000E859FF4F2491FC01EC55FF4F3491FC010D
:10016000E057FF4FE491EE23C9F0222339F023300A
:1001700001F1A8F4213019F1223029F1F0E0EE0F5D
:10018000FF1FE458FF4FA591B4918FB7F894EC91FD
:10019000611126C030953E233C938FBF08952730D0
:1001A000A9F02830C9F0243049F7809180008F7D74
:1001B00003C0809180008F7780938000DFCF84B56B
:1001C0008F7784BDDBCF84B58F7DFBCF8091B0006E
:1001D0008F778093B000D2CF8091B0008F7DF9CF20
:1001E0003E2BDACF3FB7F8948091CE019091CF01AA
:1001F000A091D001B091D10126B5A89B05C02F3F99
:1002000019F00196A11DB11D3FBFBA2FA92F982F3C
:100210008827BC01CD01620F711D811D911D42E037
:10022000660F771F881F991F4A95D1F708958F92FF
:100230009F92AF92BF92CF92DF92EF92FF924B01CB
:100240005C010E94F2006B017C010E94F2006C19BB
:100250007D098E099F09683E734081059105A8F3C9
:1002600021E0821A9108A108B10888EEC80E83E047
:10027000D81EE11CF11C81149104A104B10429F7DA
:10028000FF90EF90DF90CF90BF90AF909F908F90B6
:10029000089508950895AF92BF92CF92DF92EF92A2
:1002A000FF920F931F93CF93DF936C017B018B0120
:1002B000040F151FEB015E01AE18BF08C017D10770
:1002C00059F06991D601ED91FC910190F081E02DFA
:1002D000C6010995892B79F7C501DF91CF911F914F
:1002E0000F91FF90EF90DF90CF90BF90AF90089567
:1002F000FC01538D448D252F30E0842F90E0821B2C
:10030000930B541710F0CF96089501970895FC01B0
:10031000918D828D981761F0A28DAE0FBF2FB11D08
:100320005D968C91928D9F5F9F73928F90E0089560
:100330008FEF9FEF0895FC01918D828D981731F01A
:10034000828DE80FF11D858D90E008958FEF9FEF6E
:100350000895FC01918D228D892F90E0805C9F4F44
:10036000821B91098F739927089582E292E00E947F
:10037000A90121E0892B09F420E0822F089580E073
:1003800090E0892B29F00E94B50181110C940000A6
:100390000895FC01A48DA80FB92FB11DA35ABF4F1A
:1003A0002C91848D90E001968F739927848FA68974
:1003B000B7892C93A089B1898C91837080648C93C8
:1003C000938D848D981306C00288F389E02D808177
:1003D0008F7D80830895EF92FF920F931F93CF93A9
:1003E000DF93EC0181E0888F9B8D8C8D98131AC070
:1003F000E889F989808185FF15C09FB7F894EE8957
:10040000FF896083E889F9898081837080648083B3
:100410009FBF81E090E0DF91CF911F910F91FF90FE
:10042000EF900895F62E0B8D10E00F5F1F4F0F73A6
:100430001127E02E8C8D8E110CC00FB607FCFACF61
:10044000E889F989808185FFF5CFCE010E94C90135
:10045000F1CFEB8DEC0FFD2FF11DE35AFF4FF08232
:100460009FB7F8940B8FEA89FB8980818062CFCF98
:10047000CF93DF93EC01888D8823B9F0AA89BB89DB
:10048000E889F9898C9185FD03C0808186FD0DC0C6
:100490000FB607FCF7CF8C9185FFF2CF808185FFE7
:1004A000EDCFCE010E94C901E9CFDF91CF91089530
:1004B00020917101260F3327331F21323105ECF4CF
:1004C0002091F801FC0190E080E0243069F082E0A6
:1004D0000895A09171012191AC014F5A5E4FA40F74
:1004E000B52FB11D2C930196861798F38091710159
:1004F000680F6093710180E0089581E00895109283
:10050000F80181E08093F7011092D20161E082E16D
:100510000E94A60061E083E10E94A600E9EBF0E002
:1005200080818E7F808380818D7F808388E480932B
:10053000B80085E48093BC000895CF93DF9391E0E9
:10054000909350018823B9F0C091B800D091BA00BF
:100550008091BC008A7B8093BC0060E082E10E94B5
:10056000A60060E083E10E94A6000E947F02D09373
:10057000BA00C093B800DF91CF9108958F929F92F7
:10058000AF92BF92CF92DF92EF92FF920F931F93A1
:10059000CF93DF93D0912102D13208F0D7C0182F2A
:1005A000C09120020E94F2006B017C018091F80151
:1005B00081116BC082E08093F8011093F7018FEFF7
:1005C0008093F6011092F501D093F401A0E0B2E01F
:1005D000E4EDF1E080E0D81391C01092D301809156
:1005E000D301CC0FC82BC093D3018091D2018130AD
:1005F00009F088C01092D2010E94F2006B017C01C8
:100600008091D3018093BB008091FA019091FB010E
:10061000A091FC01B091FD01892B8A2B8B2BA1F0BD
:100620000E94F2000091FA011091FB012091FC015F
:100630003091FD016C197D098E099F090617170776
:100640002807390708F442C08091BC0083FDD8CF49
:1006500085EC8093BC000E94F2006B017C018091CC
:10066000F801823009F450C08091F6018F3F09F4FF
:100670006FC08091F601803209F46CC08091F60160
:10068000803309F469C084E026C08091FA0190911A
:10069000FB01A091FC01B091FD01892B8A2B8B2BD2
:1006A00009F484CF0E94F2008090FA019090FB013F
:1006B000A090FC01B090FD016C197D098E099F0985
:1006C00086169706A806B90608F070CF8091F90142
:1006D0000E949D0285E01092FF011092210210926B
:1006E000FE01DF91CF911F910F91FF90EF90DF906E
:1006F000CF90BF90AF909F908F9008959D919193D0
:100700008F5F69CF85EEA5CF8091FA019091FB01B3
:10071000A091FC01B091FD01892B8A2B8B2B09F450
:100720009ECF0E94F2000091FA011091FB012091EE
:10073000FC013091FD016C197D098E099F09061796
:1007400017072807390708F08ACFC0CF81E0C3CF49
:1007500080E0C1CF82E0BFCF83E0BDCF0895E091BC
:10076000990180919801E81730F4F0E0E656FE4FC9
:10077000808190E008958FEF9FEF08959091990107
:10078000809198012FEF3FEF981748F4E92FF0E0A0
:10079000E656FE4F208130E09F5F90939901C9019A
:1007A00008958091980190919901891B990B089562
:1007B000CF92DF92EF92FF920F931F93CF93DF932D
:1007C0007C01CB018A012091FE01222389F0EB01FB
:1007D0006B01C40ED51ECC15DD0569F06991D701FA
:1007E000ED91FC910190F081E02DC7010995F3CFC7
:1007F000642F0E945802C801DF91CF911F910F9181
:10080000FF90EF90DF90CF900895CF93DF931F92EA
:10081000CDB7DEB769832091FE012223F9F0209144
:100820002102203258F021E030E0FC0133832283A2
:1008300090E080E00F90DF91CF9108958091FF01CB
:10084000E82FF0E0E050FE4F998190838F5F809316
:10085000FF018093210281E090E0ECCF61E0CE01C6
:1008600001960E945802F7CF90E080E00895FC01C5
:1008700001900020E9F73197AF01481B590BBC01EB
:1008800082E292E00C944B018F929F92AF92BF92C2
:100890000F931F93CF93DF93CDB7DEB7A1970FB61A
:1008A000F894DEBF0FBECDBF19A2423008F44AE073
:1008B0008E010F5D1F4F842E912CB12CA12CA50110
:1008C00094010E94970CE62FB901CA01EA30F4F4B2
:1008D000E05DD801EE938D01232B242B252B79F796
:1008E00090E080E0109719F0CD010E943704A196A6
:1008F0000FB6F894DEBF0FBECDBFDF91CF911F9131
:100900000F91BF90AF909F908F900895E95CE1CFD9
:10091000CF92DF92EF92FF92CF93DF936C01990F0A
:10092000EE08FF08F7FE19C06DE282E292E00E9435
:10093000EB01EC0166277727CB016C197D098E0945
:100940009F094AE00E9444048C0F9D1FDF91CF91C4
:10095000FF90EF90DF90CF9008954AE0C701B60175
:10096000DF91CF91FF90EF90DF90CF900C944404F3
:1009700085ED8093BC008091FA019091FB01A091DC
:10098000FC01B091FD010796A11DB11D23E0B695B4
:10099000A795979587952A95D1F72091BC0024FDBE
:1009A00003C01092F80108954091FA015091FB01A3
:1009B0006091FC017091FD01452B462B472B69F39B
:1009C0000097A105B10541F02AE22A95F1F700C090
:1009D0000197A109B109E1CF8091F9010C949D0221
:1009E0001F920F920FB60F9211242F933F938F9364
:1009F0009F93AF93BF938091CA019091CB01A09137
:100A0000CC01B091CD013091C90123E0230F2D37E6
:100A100058F50196A11DB11D2093C9018093CA010B
:100A20009093CB01A093CC01B093CD018091CE01E6
:100A30009091CF01A091D001B091D1010196A11D5B
:100A4000B11D8093CE019093CF01A093D001B093BC
:100A5000D101BF91AF919F918F913F912F910F90B5
:100A60000FBE0F901F90189526E8230F0296A11D28
:100A7000B11DD2CF1F920F920FB60F9211242F9358
:100A80003F934F935F936F937F938F939F93AF9316
:100A9000BF93EF93FF9382E292E00E94C901FF911E
:100AA000EF91BF91AF919F918F917F916F915F91E6
:100AB0004F913F912F910F900FBE0F901F9018955F
:100AC0001F920F920FB60F9211242F938F939F9323
:100AD000EF93FF93E0913202F09133028081E09135
:100AE0003802F091390282FD1BC0908180913B0257
:100AF0008F5F8F7320913C02821741F0E0913B029F
:100B0000F0E0EE5DFD4F958F80933B02FF91EF91FA
:100B10009F918F912F910F900FBE0F901F9018955E
:100B20008081F4CF1F920F920FB60F9211242F9352
:100B30003F934F935F936F937F938F939F93AF9365
:100B4000BF93EF93FF938091B900887F803609F4BB
:100B50004AC0F0F5883209F4A7C018F5803109F4CD
:100B60009BC0B8F4882309F4F9C0883009F494C014
:100B7000FF91EF91BF91AF919F918F917F916F9175
:100B80005F914F913F912F910F900FBE0F901F904B
:100B90001895883109F488C0803251F78093F601A6
:100BA00014C0803409F49DC040F48033B9F3883315
:100BB000F9F68093F60185ECB0C0803509F485C064
:100BC000883509F496C0883499F60E94B804D0CFCD
:100BD000883909F48CC038F5883729F050F4883604
:100BE00011F0803729F683E08093F8011092930189
:100BF00057C0883809F47BC0803919F0803809F073
:100C0000B7CF80919301803208F071C0E0919301D9
:100C100081E08E0F809393018091BB00F0E0ED584E
:100C2000FE4F80833DC0803B39F0E0F4803A09F408
:100C300079C0883A09F09CCF84E08093F801109243
:100C4000720110927101E0919601F091970109955E
:100C50008091710181110FC081E080937101109228
:100C6000510109C0803C09F4A6CF883C09F4A3CF08
:100C7000883B09F07DCFE091720181E08E0F809377
:100C80007201F0E0EF5AFE4F80818093BB0090919B
:100C900072018091710129C08091D3018093BB00C2
:100CA00085EC8093BC0064CF9091F5018091F401B4
:100CB000981758F5E091F50181E08E0F8093F501CA
:100CC000F0E0EC52FE4F8081E9CFE091F50181E048
:100CD0008E0F8093F5018091BB00F0E0EC52FE4F47
:100CE00080839091F5018091F4019817C8F285E80E
:100CF000D8CFE091F50181E08E0F8093F5018091CE
:100D0000BB00F0E0EC52FE4F80838091F70181112F
:100D10005CCF81E08093D20184EA8093BC00109282
:100D2000F80126CF85EC8093BC001092F8018091E9
:100D30009301803230F4E0919301F0E0ED58FE4FE2
:100D400010826091930170E0E0919401F09195011F
:100D500083E791E00995109293010ACF1092F60172
:100D600034CFE2E2F2E01382128288EE93E0A0E058
:100D7000B0E084839583A683B78324E031E0318398
:100D8000208325EC30E03587248724EC30E037875A
:100D9000268720EC30E0318B208B21EC30E0338B48
:100DA000228B22EC30E0358B248B26EC30E0378B25
:100DB000268B118E128E138E148EEFEBF2E01382BF
:100DC000128284839583A683B78386E191E0918321
:100DD00080830895CF93DF9300D000D000D0CDB7AB
:100DE000DEB7789484B5826084BD84B5816084BDAB
:100DF00085B5826085BD85B5816085BD80916E00B9
:100E0000816080936E0010928100809181008260E9
:100E10008093810080918100816080938100809126
:100E200080008160809380008091B1008460809315
:100E3000B1008091B00081608093B00080917A0011
:100E4000846080937A0080917A00826080937A0037
:100E500080917A00816080937A0080917A00806826
:100E600080937A001092C1008AE00E94870083E09C
:100E70000E94870060E083E00E94A6001092990122
:100E8000109298011092FF01109221020E947F029D
:100E900089E491E090939701809396018AE491E030
:100EA000909395018093940181E08093FE0188E600
:100EB000809320026BE68FEB92E00E94050460E0D5
:100EC0008FEB92E00E94050481E00E94BE02E09157
:100ED0003202F091330282E08083E0912E02F091A1
:100EE0002F021082E0913002F09131028FEC80836A
:100EF00010923A02E0913602F091370286E0808348
:100F0000E0913402F0913502808180618083E0912C
:100F10003402F0913502808188608083E091340250
:100F2000F0913502808180688083E0913402F091F5
:100F3000350280818F7D808361E08DE00E94A60074
:100F400061E08AE00E94A60060ED77E080E090E03A
:100F50000E94170160E08AE00E94A60060E08DE038
:100F60000E94A60066246394712C21E02093FE0168
:100F700088E6809320021092FF01109221026BE319
:100F80008FEB92E00E94050480E00E94BE020E9466
:100F9000F2006B017C018091F801811165C091E044
:100FA0009093F8019093F7012FEF2093F6011092A0
:100FB000F5018BE08093F4019093D3018091D301EC
:100FC000806D8093D3018091D201813009F0C2C13C
:100FD0001092D2010E94F2006B017C018091D3013A
:100FE0008093BB008091FA019091FB01A091FC01DC
:100FF000B091FD01892B8A2B8B2BA1F00E94F2006E
:101000000091FA011091FB012091FC013091FD014A
:101010006C197D098E099F090617170728073907DC
:1010200008F443C08091BC0083FDD8CF95EC909329
:10103000BC000E94F2006B017C018091F8018130BC
:1010400009F48CC18091F5018C3008F0A9C1809120
:10105000F501A4EDB1E0EAE9F1E090E0981751F173
:101060002D9121939F5FFACF8091FA019091FB011E
:10107000A091FC01B091FD01892B8A2B8B2B09F4E7
:101080008ACF0E94F2000091FA011091FB01209199
:10109000FC013091FD016C197D098E099F0906172D
:1010A00017072807390708F076CF8091F9010E94C9
:1010B0009D0280E010929901809398018FEB92E05D
:1010C0000E94BE03182F8FEB92E00E94BE031A838A
:1010D0001982C980DA80C82AD92AD092C801C09260
:1010E000C7018FEB92E00E94BE03182F8FEB92E0B6
:1010F0000E94BE031C831B82EB80FC80E82AF92A35
:10110000F092C601E092C5018FEB92E00E94BE030F
:10111000182F8FEB92E00E94BE031E831D820D816B
:101120001E81082B192B1093C4010093C301B60133
:10113000DD0C880B990B0E94150B4B015C01B7016C
:10114000FF0C880B990B0E94150B6B017C01B801F9
:10115000110F880B990B0E94150B1B012C01A50187
:101160009401C501B4010E94CA0B4B015C01A701A7
:101170009601C701B6010E94CA0B9B01AC01C501D3
:10118000B4010E94730A6B017C01A2019101C201AA
:10119000B1010E94CA0B9B01AC01C701B6010E94BC
:1011A000730A0E943D0C6B017C0120E030E44CE9A5
:1011B00055E40E94DF0A18160CF4F4C08091C101B6
:1011C0009091C201892B09F0EDC08091C00181117D
:1011D00016C02FB7F8948091CA019091CB01A091CD
:1011E000CC01B091CD012FBF8093BC019093BD0184
:1011F000A093BE01B093BF0181E08093C0012FB7DF
:10120000F8948091CA019091CB01A091CC01B0914A
:10121000CD012FBF4091BC015091BD016091BE0135
:101220007091BF01841B950BA60BB70B863E9105F1
:10123000A105B10580F07092C2016092C101709267
:10124000BB016092BA0184E291E00E94370482E31C
:1012500091E00E9437046091C1018AE00E94A600DB
:101260008091BA019091BB01019701F52FB7F894D5
:101270008091CA019091CB01A091CC01B091CD0198
:101280002FBF4091BC015091BD016091BE01709192
:10129000BF01841B950BA60BB70B863B9840A1059D
:1012A000B10520F01092BB011092BA012FB7F8944B
:1012B0006091CA017091CB018091CC019091CD01D8
:1012C0002FBF4AE00E94440485E391E00E94370466
:1012D0008091C7019091C8010E94880488E391E041
:1012E0000E9437048091C5019091C6010E94880434
:1012F00088E391E00E9437048091C3019091C4017A
:101300000E9488048CE391E00E943704A7019601B3
:10131000C701B6010E947D0C882309F451C083E403
:1013200091E00E94370483E391E00E94370462E376
:1013300070E080E090E00E94170180E090E0892B4F
:1013400009F413CE0E94B501882309F40ECE0E9441
:1013500000000BCE25EE2093BC006BCE8091FA01ED
:101360009091FB01A091FC01B091FD01892B8A2B8A
:101370008B2B09F462CE0E94F2000091FA011091C9
:10138000FB012091FC013091FD016C197D098E0952
:101390009F09061717072807390708F04ECE85CE94
:1013A0008CE057CE20E030E44CE955E4C701B601AB
:1013B0000E94C50B18160CF04ECF1092C0014BCFF7
:1013C00046015701E894B7F82FEF3FEF4FE75FE78B
:1013D000C501B4010E947D0C81110DC02FEF3FEFBC
:1013E0004FE75FE7C501B4010E94DF0A18161CF43D
:1013F00087E491E096CF2FEF3FEF4FE75FE4C7011F
:10140000B6010E94C50B18161CF48BE491E089CF3D
:101410002FEF3FEF4FE75FECC701B6010E94DF0AF5
:1014200087FDF3CF20E030E0A901C701B6010E949B
:10143000DF0A87FF09C06DE282E292E00E94EB01C1
:10144000F7FAF094F7F8F0942AE037ED43EA5BE31B
:10145000C701B6010E94730A4B015C010E94E40AB5
:101460006B017C010E94130B9B01AC01C501B4010F
:101470000E94720A4B015C014AE0C701B6010E945A
:1014800044046EE282E292E00E94EB0120E030E050
:1014900040E251E4C501B4010E94CA0B4B015C015A
:1014A0000E94E40A6B01F12CE12C4AE0C701B6016D
:1014B0000E944404C701B6010E94130B9B01AC01BA
:1014C000C501B4010E94720A20E030E040E251E41C
:1014D0000E94CA0B0E94E40A90E080E04AE00E9469
:1014E000440421CF5058BB27AA270E948A0A0C9493
:1014F0008B0B0E947D0B38F00E94840B20F039F496
:101500009F3F19F426F40C947A0B0EF4E095E7FB58
:101510000C94740BE92F0E949C0B58F3BA176207C6
:1015200073078407950720F079F4A6F50C94BE0B99
:101530000EF4E0950B2EBA2FA02D0B01B9019001EE
:101540000C01CA01A0011124FF27591B99F0593F32
:1015500050F4503E68F11A16F040A22F232F342F7A
:101560004427585FF3CF469537952795A795F040C8
:101570005395C9F77EF41F16BA0B620B730B840BDD
:10158000BAF09150A1F0FF0FBB1F661F771F881F95
:10159000C2F70EC0BA0F621F731F841F48F48795ED
:1015A00077956795B795F7959E3F08F0B0CF9395DF
:1015B000880F08F09927EE0F9795879508950E9458
:1015C000500B08F481E008950E94A40B88F09F5707
:1015D00098F0B92F9927B751B0F0E1F0660F771F57
:1015E000881F991F1AF0BA95C9F714C0B13091F04D
:1015F0000E94BE0BB1E008950C94BE0B672F782FAC
:101600008827B85F39F0B93FCCF386957795679511
:10161000B395D9F73EF490958095709561957F4F7D
:101620008F4F9F4F0895E89409C097FB3EF4909523
:101630008095709561957F4F8F4F9F4F9923A9F0AB
:10164000F92F96E9BB279395F6958795779567953A
:10165000B795F111F8CFFAF4BB0F11F460FF1BC07E
:101660006F5F7F4F8F4F9F4F16C0882311F096E911
:1016700011C0772321F09EE8872F762F05C06623BF
:1016800071F096E8862F70E060E02AF09A95660F78
:10169000771F881FDAF7880F9695879597F9089531
:1016A000990F0008550FAA0BE0E8FEEF1616170673
:1016B000E807F907C0F012161306E407F50798F0DB
:1016C000621B730B840B950B39F40A2661F0232BF4
:1016D000242B252B21F408950A2609F4A140A69570
:1016E0008FEF811D811D089597F99F6780E870E055
:1016F00060E008959FEF80EC089500240A94161688
:10170000170618060906089500240A9412161306EF
:10171000140605060895092E0394000C11F488237D
:1017200052F0BB0F40F4BF2B11F460FF04C06F5F99
:101730007F4F8F4F9F4F089557FD9058440F551F6F
:1017400059F05F3F71F04795880F97FB991F61F043
:101750009F3F79F087950895121613061406551FBA
:10176000F2CF4695F1DF08C0161617061806991F26
:10177000F1CF86957105610508940895E894BB271B
:1017800066277727CB0197F908950E94500B08F43C
:101790008FEF08950E94DD0B0C948B0B0E947D0B44
:1017A00038F00E94840B20F0952311F00C94740BF8
:1017B0000C947A0B11240C94BF0B0E949C0B70F3B9
:1017C000959FC1F3950F50E0551F629FF001729FE6
:1017D000BB27F00DB11D639FAA27F00DB11DAA1FF5
:1017E000649F6627B00DA11D661F829F2227B00D42
:1017F000A11D621F739FB00DA11D621F839FA00DCD
:10180000611D221F749F3327A00D611D231F849F1C
:10181000600D211D822F762F6A2F11249F57504073
:101820009AF0F1F088234AF0EE0FFF1FBB1F661FEE
:10183000771F881F91505040A9F79E3F510580F0B7
:101840000C94740B0C94BF0B5F3FE4F3983ED4F3FD
:10185000869577956795B795F795E7959F5FC1F75B
:10186000FE2B880F911D9695879597F9089519F489
:1018700016F40C947A0B0C94820C0E94A40BB8F30F
:101880009923C9F3B6F39F57550B87FF0E94900C1D
:101890000024A0E640EA900180585695979528F4D8
:1018A000805C660F771F881F20F0261737074807D0
:1018B00030F4621B730B840B202931294A2BA69527
:1018C00017940794202531254A2758F7660F771F6C
:1018D000881F20F026173707480730F4620B730B78
:1018E000840B200D311D411DA09581F7B901842F76
:1018F0009158880F9695879508950E94500B880BF4
:10190000990B08959F3F31F0915020F4879577957A
:101910006795B795880F911D9695879597F90895C6
:1019200091505040660F771F881FD2F70895A1E2AB
:101930001A2EAA1BBB1BFD010DC0AA1FBB1FEE1F49
:10194000FF1FA217B307E407F50720F0A21BB30B94
:10195000E40BF50B661F771F881F991F1A9469F710
:1019600060957095809590959B01AC01BD01CF016C
:101970000895EE0FFF1F0590F491E02D0994F8945F
:10198000FFCF00000000EB014B0178013802A901F4
:1019900087019B01000000000504D8033404AE0356
:1019A000D103BE03AF0346414C4C2044455445434C
:1019B000544544000D0A00206D73207C2000202037
:1019C00020202020006E616E00696E66006F7666D2
:0219D000000015
:107800000C94343C0C94513C0C94513C0C94513CE1
:107810000C94513C0C94513C0C94513C0C94513CB4
:107820000C94513C0C94513C0C94513C0C94513CA4
:107830000C94513C0C94513C0C94513C0C94513C94
:107840000C94513C0C94513C0C94513C0C94513C84
:107850000C94513C0C94513C0C94513C0C94513C74
:107860000C94513C0C94513C11241FBECFEFD8E036
:10787000DEBFCDBF11E0A0E0B1E0ECE9FFE702C060
:1078800005900D92A230B107D9F712E0A2E0B1E065
:1078900001C01D92AD30B107E1F70E942D3D0C945F
:1078A000CC3F0C94003C982F959595959595959582
:1078B000905D8F708A307CF0282F295A8091C0000B
:1078C00085FFFCCF9093C6008091C00085FFFCCF60
:1078D0002093C6000895282F205DF0CF982F809127
:1078E000C00085FFFCCF9093C6000895EF92FF92F1
:1078F0000F931F93EE24FF2487018091C00087FD22
:1079000017C00894E11CF11C011D111D81E4E8164B
:1079100082E4F8068FE0080780E0180770F3E09132
:107920000401F091050109958091C00087FFE9CF1E
:107930008091C6001F910F91FF90EF9008950E94D3
:10794000763C982F8091C00085FFFCCF9093C600B5
:1079500091362CF490330CF09053892F089597555D
:10796000892F08951F930E949F3C182F0E949F3CCF
:107970001295107F810F1F9108951F93182F882350
:1079800021F00E94763C1150E1F71F9108951F935A
:10799000182F0E94763C803249F0809103018F5F5E
:1079A000809303018530C1F01F9108958091C0003C
:1079B00085FFFCCF84E18093C6008091C00085FFE5
:1079C000FCCF1093C6008091C00085FFFCCF80E102
:1079D0008093C6001F910895E0910401F091050184
:1079E00009951F9108950E94763C803241F0809164
:1079F00003018F5F80930301853081F008958091AA
:107A0000C00085FFFCCF84E18093C6008091C00058
:107A100085FFFCCF80E18093C6000895E0910401CA
:107A2000F09105010995089540E951E08823A1F0FE
:107A30002D9A28EE33E0FA013197F1F721503040CA
:107A4000D1F72D9828EE33E0FA013197F1F7215064
:107A50003040D1F7815061F708953F924F925F9285
:107A60006F927F928F929F92AF92BF92CF92DF924E
:107A7000EF92FF920F931F93CF93DF93000080E16B
:107A80008093C4001092C50088E18093C10086E015
:107A90008093C2005098589A259A81E00E94143D24
:107AA00024E1F22E9EE1E92E85E9D82E0FE0C02ECA
:107AB00010E1B12EAA24A394B1E49B2EA6E58A2E50
:107AC000F2E57F2EE0E26E2E79E4572E63E5462E36
:107AD00050E5352E0E94763C8033B1F18133B9F107
:107AE000803409F46FC0813409F476C0823409F41B
:107AF00085C0853409F488C0803531F1823521F1A3
:107B0000813511F1853509F485C0863509F48DC0BC
:107B1000843609F496C0843709F403C1853709F423
:107B200072C1863709F466C0809103018F5F80932C
:107B30000301853079F6E0910401F0910501099582
:107B40000E94763C803351F60E94F33CC3CF0E94E2
:107B5000763C803249F78091C00085FFFCCFF092DF
:107B6000C6008091C00085FFFCCF9092C600809136
:107B7000C00085FFFCCF8092C6008091C00085FFC9
:107B8000FCCF7092C6008091C00085FFFCCF609250
:107B9000C6008091C00085FFFCCF5092C600809146
:107BA000C00085FFFCCF4092C6008091C00085FFD9
:107BB000FCCF3092C6008091C00085FFFCCFB09210
:107BC000C60088CF0E94763C863808F4BDCF0E945C
:107BD000763C0E94F33C7ECF0E94763C803809F4CC
:107BE0009CC0813809F40BC1823809F43CC1883942
:107BF00009F48FC080E00E94C73C6CCF84E10E94F2
:107C0000BD3C0E94F33C66CF85E00E94BD3C0E94D3
:107C1000F33C60CF0E94763C809306010E94763C44
:107C2000809307010E94F33C55CF0E94763C80333D
:107C300009F41DC183E00E94BD3C80E00E94C73C66
:107C400049CF0E94763C809309020E94763C809343
:107C5000080280910C028E7F80930C020E94763C79
:107C6000853409F415C18091080290910902892B8D
:107C700089F000E010E00E94763CF801E85FFE4FDA
:107C800080830F5F1F4F80910802909109020817AF
:107C9000190788F30E94763C803209F045CF809125
:107CA0000C0280FF01C16091060170910701660F0F
:107CB000771F7093070160930601A0910802B091AD
:107CC00009021097C9F0E8E0F1E09B01AD014E0F09
:107CD0005F1FF999FECF32BD21BD819180BDFA9A17
:107CE000F99A2F5F3F4FE417F50799F76A0F7B1F4B
:107CF00070930701609306018091C00085FFFCCF5F
:107D0000F092C6008091C00085FFFCCFB092C60003
:107D1000E1CE83E00E94C73CDDCE82E00E94C73CFA
:107D2000D9CE0E94763C809309020E94763C8093D3
:107D300008028091060190910701880F991F909386
:107D40000701809306010E94763C853409F4A6C0A1
:107D500080910C028E7F80930C020E94763C8032D0
:107D600009F0B8CE8091C00085FFFCCFF092C6002C
:107D7000609108027091090261157105B9F140E046
:107D800050E080910C02A82FA170B82FB27011C0E2
:107D9000BB2309F45CC0E0910601F0910701319624
:107DA000F0930701E09306014F5F5F4F46175707B7
:107DB000E8F4AA2369F3F999FECF209106013091E6
:107DC000070132BD21BDF89A90B58091C00085FFB2
:107DD000FCCF9093C6002F5F3F4F30930701209355
:107DE00006014F5F5F4F4617570718F38091C00099
:107DF00085FDE5CE8091C00085FFF8CFE0CE81E023
:107E00000E94C73C67CE0E94763C803209F08CCE3F
:107E10008091C00085FFFCCFF092C6008091C00029
:107E200085FFFCCFE092C6008091C00085FFFCCFAB
:107E3000D092C6008091C00085FFFCCFC092C600E2
:107E40008091C00085FFFCCFB092C60043CEE09188
:107E50000601F091070194918091C00085FFFCCF4D
:107E60009093C6009CCF80E10E94C73C33CE0E9415
:107E7000763C0E94763C182F0E94763C112309F430
:107E800083C0113009F484C08FE00E94C73C22CE29
:107E900080910C02816080930C02E5CE80910C02EF
:107EA000816080930C0259CF809107018823880F4D
:107EB000880B8A2180930B02809106019091070123
:107EC000880F991F90930701809306018091080203
:107ED00080FF09C080910802909109020196909359
:107EE000090280930802F894F999FECF1127E091D6
:107EF0000601F0910701C8E0D1E08091080290915D
:107F00000902103091F40091570001700130D9F34B
:107F100003E000935700E89500915700017001308D
:107F2000D9F301E100935700E89509901990009169
:107F3000570001700130D9F301E000935700E89534
:107F40001395103498F011270091570001700130FB
:107F5000D9F305E000935700E895009157000170B0
:107F60000130D9F301E100935700E895329602976A
:107F700009F0C7CF103011F00296E5CF112480919F
:107F8000C00085FFB9CEBCCE8EE10E94C73CA2CD19
:0E7F900085E90E94C73C9ECDF894FFCF80008B
:00000001FF
